:100000000004002091010000F3940000E19E000034
:100010009301000093010000930100009301000090
:100020009301000093010000930100009301000080
:1000300093010000930100009301000095A00000CF
:100040009301000093010000930100009301000060
:100050009301000093010000930100009301000050
:100060009301000093010000930100009301000040
:100070009301000093010000930100009301000030
:100080009301000093010000930100009301000020
:100090009301000093010000930100009301000010
:1000A0009301000093010000930100009301000000
:1000B0009301000093010000930100007DA5000062
:1000C00072B6244880F30888234880F30988022008
:1000D00080F31488BFF36F8F08F0A2FA08F064F879
:1000E0001E481F491B4A914202DA08600431FAE7B0
:1000F0001C49194A914202DA08600431FAE71A49A8
:100100001A4A1B4B9A4204DA086810600431043220
:10011000F8E700201749184A914202DA08600431D2
:10012000FAE708F081FA08F07CFA144C144DAC425E
:1001300003DA216888470434F9E703F065FF114CBE
:10014000114DAC4203DA216888470434F9E70F49BE
:100150000847000000040020000C002055555555AC
:10016000000000200004002064D40000000C0020E7
:10017000E40F002000100020002A0020C000000032
:10018000C0000000C0000000C00000002586000084
:1001900096E700F000F8FEE7F0B544464D465646B7
:1001A0005F46F0B46B46CB60C3689D46F0BCA0468A
:1001B000A946B246BB46F0BD62B6281CA047002047
:1001C00009F014F9FEE709F075F8024A024B1360D2
:1001D000FEE7C04604ED00E00000008002B4714676
:1001E00049084900095649008E4402BC7047C04680
:1001F00002B4714649084900095C49008E4402BCBA
:100200007047C04603B47146490840004900095A86
:1002100049008E4403BC7047002934D001230022DA
:1002200010B488422CD301242407A14204D2814275
:1002300002D209011B01F8E7E400A14204D2814285
:1002400002D249005B00F8E7884201D3401A1A4302
:100250004C08A04202D3001B5C0822438C08A04239
:1002600002D3001B9C082243CC08A04202D3001BEF
:10027000DC082243002803D01B0901D00909E3E769
:10028000100010BC704701B5002000F05FF802BDFF
:100290000029F8D003B5FFF7C1FF0EBC4243891A0D
:1002A0001847C046002941D010B404004C40A44671
:1002B00001230022002900D54942002800D54042F0
:1002C00088422CD301242407A14204D2814202D2C5
:1002D00009011B01F8E7E400A14204D2814202D2E5
:1002E00049005B00F8E7884201D3401A1A434C08E2
:1002F000A04202D3001B5C0822438C08A04202D318
:10030000001B9C082243CC08A04202D3001BDC083F
:100310002243002803D01B0901D00909E3E710009C
:100320006446002C00D5404210BC704701B5002047
:1003300000F00CF802BDC0460029F7D003B5FFF766
:10034000B3FF0EBC4243891A1847C0467047C046E7
:100350001C2101231B04984201D3000C10391B0AF5
:10036000984201D3000A08391B09984201D30009B9
:10037000043902A2105C40187047C0460403020210
:10038000010101010000000000000000002B15D158
:10039000002A13D1002906DB01DC002806D000204A
:1003A000C043410802E080210906002007B402484A
:1003B00001A14018029003BD95FFFFFF03B46846FA
:1003C00001B502980AF0BBFC019B9E4602B00CBC32
:1003D0007047C046002B11D1002A0FD1002900D14F
:1003E000002802D00021C943080007B4024802A136
:1003F0004018029003BDC04655FFFFFF03B4684696
:1004000001B502980AF02CFC019B9E4602B00CBC80
:100410007047C046D0400B00D1409C46203AD340A4
:10042000184352426346934018437047914003007B
:1004300090409C46203A9340194352426346D34031
:10044000194370478446100062468C461900634683
:1004500000E0C0461FB50CF011F9002801D40021BE
:10046000C8421FBD10B50CF051F84042013010BD1C
:1004700010B50CF003F9002801DB002010BD0120AD
:1004800010BDC04610B50CF0F9F8002801DD0020C1
:1004900010BD012010BDC04610B50CF079F8002841
:1004A00001DC002010BD012010BDC04610B50CF0CD
:1004B0006FF8002801DA002010BD012010BDC046F1
:1004C00010B5002903D1FFF743FF203002E00800F8
:1004D000FFF73EFF10BDC046062010B500F0D8F96A
:1004E00001200AF06BFBC046114B70B51C6805007B
:1004F000236B002B03D000221D615A6170BD1820B0
:1005000000F0ECFA031E20630CD00A4A00210260BE
:10051000094A4260094A82600B22828101201861E7
:100520005961E8E700224621054B064800F0B0FA81
:10053000000C00200E33CDAB34126DE6ECDE05006E
:100540008CD30000A4D30000184B70B51D682C6B31
:10055000002C0ED020696169154A164B0AF041FB48
:100560000122002312184B415800400822616361A8
:1005700070BD182000F0B2FA041E28630FD00E4B95
:10058000012203600D4B43600D4B83600B2383817D
:1005900000230261436107480A4A064BE6E700224E
:1005A0005221094B094800F073FAC046000C0020A4
:1005B0002D7F954C2DF451580E33CDAB34126DE692
:1005C000ECDE05002E7F954C8CD30000A4D30000F8
:1005D00030B5032A19D903000B43551E9B0710D0D1
:1005E000002303E05A1C9D4212D01300C25CCC5C75
:1005F000A242F7D0101B0CE0043A04300431032A65
:1006000003D904680B689C42F6D0551E002AE7D136
:10061000002030BDF0B588420AD98B18984207D225
:10062000531E002A03D0CA5CC254013BFBD2F0BD6A
:1006300005000F2A0AD8561E002AF8D00023CC5CE9
:100640001A00EC5401339642F9D1F0E70324030079
:1006500026000B431E401C4230D11500103D2D09D1
:1006600003000C00AC462F013F1825681D6065682B
:100670005D60A5689D60E5681034DD601D00103385
:10068000BD42F2D165460F230C2401352D014919D5
:1006900013404519144213D08C59AC5104369C1B9D
:1006A000032CF9D8043B9B0801339B00ED18C918B3
:1006B00003231A40561E002AC0D1B8E7561EBDE7D4
:1006C0001A00B8E7F0B50500830749D0541E002A88
:1006D00045D003000326CAB202E00135013C3ED3F7
:1006E00001332A703342F8D1032C30D9FF220A405B
:1006F0001502AD182A04AD180F2C34D92700103F6D
:100700003F093E01B4461E001A00103666441560CB
:1007100055609560D56010329642F8D101373F019F
:10072000DB190F270C22274022403C00002A0ED064
:100730003E1FB608B400A4461A001C1D644420C223
:10074000A242FCD103240136B6009B193C40002C88
:1007500005D0C9B21C19197001339C42FBD1F0BD00
:1007600003001400C0E72700E2E7C046C36B10B5E2
:100770000400002B01D0002010BD802100F0E6F91C
:10078000E063002806D002000023803208C09042B7
:10079000FCD1F0E701204042EEE7C04670B505000D
:1007A0000C0016001F2907D8C06B002809D0A40030
:1007B00004192068266070BD1623036001204042A2
:1007C000F9E78021280000F0C1F9010003000022B0
:1007D000E86380310028F1D004C38B42FCD1E6E706
:1007E00070B505000C001F291ED8C36B002B0ED05E
:1007F0008A009B181A68002A09D0012A05D0511CCA
:100800000ED00021200019609047002070BD280004
:1008100000F0F2F822000100280000F0D9F8F5E716
:10082000162303600120F1E71623036001204042F4
:10083000ECE7C04670B505000C001F2924D8C36B37
:10084000002B14D0A2009B181A68002A09D0511C52
:100850000BD0012A07D0002120001960904700200A
:1008600070BD0120FCE70320FAE70220F8E78021B1
:1008700000F06CF9031EE86306D00021020080300E
:1008800002C29042FCD1DDE701204042E8E7C046C9
:10089000144B70B504001D681F281DD8EB6B002B8E
:1008A0000DD082009B181A68002A08D0012A04D0B3
:1008B000511C0DD0002119609047002070BD280008
:1008C00000F09AF822000100280000F081F8F5E716
:1008D000162301202B60F1E7162301202B604042F4
:1008E000ECE7C046000C0020114B70B504000E0070
:1008F0001D681F2807D8E86B002809D0A400041938
:100900002068266070BD16232B6001204042F9E765
:100910008021280000F01AF9010003000022E8639A
:1009200080310028F1D004C38B42FCD1E6E7C046F9
:10093000000C00200C4B10B51C68E36B002B01D0A1
:10094000002010BD8021200000F000F9E0630028A5
:1009500006D002000023803208C09042FCD1EFE7AD
:1009600001204042EDE7C046000C0020174B70B557
:1009700004001D681F2825D8EB6B002B14D0A200A3
:100980009B181A68002A09D0511C0BD0012A07D0E5
:100990000021200019609047002070BD0120FCE775
:1009A0000320FAE70220F8E78021280000F0CEF8C3
:1009B000031EE86306D000210200803002C290428C
:1009C000FCD1DCE701204042E7E7C046000C0020F4
:1009D000002370B5074D0400080011002B600AF0D9
:1009E000F5F8431C00D070BD2B68002BFBD02360B2
:1009F000F9E7C0460810002010B50AF0EFF810BD66
:100A0000F0B505000F2A33D90324030026000B4359
:100A10001E401C4237D11500103D2D0903000C006B
:100A2000AC462F013F1865685D60A5689D60E5686C
:100A3000DD60256810341D601D001033BD42F2D109
:100A400065460F230C2401352D0149191340451922
:100A500014421AD08C59AC5104369C1B032CF9D883
:100A6000043B9B0801339B00ED18C91803231A406F
:100A7000561E002A06D00023CC5C1A00EC54013329
:100A80009642F9D1F0BD561EF5E71A00F0E7C046D0
:100A900070B514001A000A4B06001B6884B0D868B1
:100AA000002C0AD0074B084D019300913300290018
:100AB000029400F0EBF8FFF70FFD044B1C00F2E787
:100AC000000C0020E0D30000F0D30000ECD30000C5
:100AD000130010B50022FFF7DBFFC04610B5034B33
:100AE0000100186800F032F810BDC046000C00206C
:100AF00010B5034B0100186800F0EEF810BDC046B9
:100B0000000C002070B5104E050033680C00002B5F
:100B100015D0210028000AF036F8431C0CD003231E
:100B2000C41C9C43A04205D0211A28000AF02BF8CF
:100B3000013001D0200070BD01246442FAE7002199
:100B40000AF021F83060E4E7001000200323F0B53C
:100B5000C646CD1C9D430835060000B50C2D1ED29F
:100B60000C25A9421DD8300000F074F8384F7A687F
:100B7000002A1AD0140004E063682200002B14D06D
:100B80001C0023685B1BF7D40B2B26D96119256049
:100B9000A24254D051600B6063684B600DE0002DA1
:100BA000DFDA0C230020336014E029003000FFF767
:100BB000A9FF0400431C15D00560300000F052F876
:100BC000200007220B30231D9043C21A984201D007
:100BD0001B1AA35080BCB846F0BD6368A24233D054
:100BE0005360EAE77B68002B22D01C005B68002B77
:100BF000FBD12368002198463000A04409F0C3FFD0
:100C0000804515D123683000ED1A2900FFF77AFFDF
:100C100001300DD023685B1923607B6800E013006E
:100C2000002B13D05A68A242F9D100225A60C4E7BF
:100C30000C233000336000F015F80020CAE779601B
:100C40000B6063684B60B8E77B60B6E75B60FFDE14
:100C50000010002010B5024800F034F810BDC04666
:100C60001C10002010B5024800F034F810BDC0463A
:100C70001C1000200CB400B583B004AB04CB01936E
:100C800000F0C0F803B008BC02B018470EB400B5BD
:100C900082B003AB0100054804CB0068019300F06B
:100CA000B1F802B008BC03B01847C046000C0020E1
:100CB0007047C0467047C0467047C0467047C04640
:100CC0007047C0467047C0460120704701207047FA
:100CD0007047C0467047C04670B50500002915D062
:100CE0000C1F2368002B23DB2800FFF7B3FF274AE4
:100CF0001368002B05D0A3420BD9216860188342EA
:100D00002CD0280063601460FFF7ACFF70BDA342D5
:100D100010D81A005B68002BF9D1106811188C42AA
:100D200018D02CD3636054602800FFF79BFFEDE7D9
:100D3000E418D9E711685018A04214D01FD82168D0
:100D400060188342EED118685B68411821606360C7
:100D50005460E9E723681B181360E5E718685B68CF
:100D600041182160CDE720680918501811608342AE
:100D7000DAD118685B68411811605360D4E70C231E
:100D800028002B60FFF76EFFC0E7C046041000206C
:100D9000936810B5013B9360002B04DA9469A34279
:100DA00007DB0A2905D01368581C10600800197069
:100DB00010BD00F0FDFEFBE7F8B506000F00002BAC
:100DC0000DD01400D51802E00134AC4207D03A002F
:100DD00030002178FFF7DCFF431CF5D1F8BD00207F
:100DE000FCE7C04610B5140092680023002A05D025
:100DF000220000F0DFFC00220300A26000221800A5
:100E0000626010BDF0B54E464546DE465746E0B539
:100E10008146884614001E009FB0002803D0036A54
:100E2000002B00D14EE143460C229B5E4246526E9F
:100E3000D20702D49A0500D43CE11B0700D493E00A
:100E400043461B69002B00D18EE0002306AD6B6189
:100E500020336B761033AB765346A3469B4F0596F3
:100E600003935B461B78002B00D1ABE05C4604E0AB
:100E700063780134002B00D18CE0252BF8D15B4640
:100E8000E31A9A465C4500D089E02378002B00D114
:100E900098E0012300225B42069207930022002380
:100EA0000892099300234332AB54AB6501339B4650
:100EB000013406E05A46C01B82401C0029680A43E0
:100EC0002A6005223800217800F030FF631C1E00E4
:100ED0000028EFD12A68D10602D54321203068547A
:100EE000110702D543212B20685421782A2900D0EC
:100EF0007BE0059B191D1B680591002B00DAADE016
:100F0000EB6061782E2900D187E0714C032220002C
:100F100000F00CFF002806D04023001B83402A6805
:100F2000013613432B603178731C062269489B46B7
:100F3000297600F0FBFE002800D195E0664B002BDF
:100F400000D17BE005AA0092290042464846634B47
:100F500000E000BF0390039B013333D0039A6B6919
:100F6000944663446B617CE74146484600F07AFE54
:100F7000002800D169E743465B6EDB0707D4434690
:100F80009B899B0503D44346986DFFF7A3FE012080
:100F9000404223E05B46E31A9A465C4512D03B0090
:100FA00000264746A0464C46994602E00136B24527
:100FB0004BD95B463A002000995DFFF7E9FE01300E
:100FC000F4D1B84643465B6EDB0700D56FE043467D
:100FD0009B899A0567D55B06D9D468691FB0F0BCB8
:100FE000BB46B246A946A046F0BD080030382600F0
:100FF000092800D986E7EA68140000E00133A2005E
:101000001219197852001418080030380928F5D937
:101010001E00EC602E2900D077E771782A292DD1A7
:10102000059BB01C1A1D1B6805926B60002B02DA31
:1010300001235B426B60B178060066E70722059BDF
:10104000073393430833059388E74B466A69A14603
:10105000524444466A61B8461F0016E75B42EB60A3
:1010600002231A432A604CE705AA0092290042464F
:1010700048461A4B00F0E4F803906CE708000023A0
:10108000303801366B60092800D93EE71A0093001A
:101090009B1871785B001A1808003038013609284F
:1010A000F5D96A6031E74346986DFFF713FE434672
:1010B0009B8990E74346986DFFF704FE43460C2258
:1010C0009B5EBAE600F02AFBADE6C04620D40000E5
:1010D00028D400002CD4000000000000B90D00004E
:1010E00010B504001300034A10680A002100FFF73E
:1010F00089FE10BD000C0020F8B557464E46454607
:10110000DE46E0B51F000A9B924698460A698B6846
:1011100006000C009A4200DA1A0053461A60432374
:10112000E35C002B02D0514601320A60226891062E
:1011300061D55346524606201B680233136022686D
:101140001100104208D1192083460020E168814631
:10115000A344994247DC11004323E35C5A1E9341A8
:1011600089060AD53020E1184331087045215A1C00
:10117000615CA21843320233117022003900300042
:101180004332C04701301DD0534606251B68E16835
:101190009C462368A26820692B40042B31D08242F0
:1011A00039DD00239946121A914400251A3402E0D1
:1011B00001354D452FDA0123220039003000C047A8
:1011C0000130F5D101204042F0BCBB46B246A946F1
:1011D000A046F8BD01239C465346E5681B68E144E0
:1011E000ED1A4D4524DD01235A4639003000C04731
:1011F0000130EFD1E6E7062111420ED05A1E93418D
:10120000BBE76346C91ACB43DB170B4099468242C2
:10121000C9DC0029C9DC0020D6E7192053468346E3
:1012200000201B68E1688146A3449942DBDC92E719
:1012300043232168E35C5A1E9341890692D49CE7BC
:10124000F0B54E46994643239C4657464546DE46F2
:101250008C446346E0B587B002930C00097E90464B
:101260000700109A002914D00B00583BDBB2202B4A
:1012700048D88B489B00C3589F46136821681D1DA2
:10128000606915601B680E0602D4490600D5E3E0CC
:1012900018600023029D23614B4621000093380013
:1012A000434605AAFFF728FF01301ED02A00414619
:1012B00038002369C847013017D02368E068059ECD
:1012C0009B071BD5B04219DD19239A460025A2447D
:1012D00004E0E0680135831BAB420FDD0123524679
:1012E00041463800C8470130F3D10120404207B0E1
:1012F000F0BCBB46B246A946A046F0BDB042F6DA05
:101300003000F4E72500422301204235E154432315
:1013100000222061E254BFE713682168181D1060A5
:101320000D0602D44D0600D59AE01A6816006368CF
:10133000002A00DA98E05B4A93460A2203924CE0C6
:10134000136820681D1D1560060602D4400600D5EE
:1013500084E01E68534B9B466F2900D195E00A2319
:10136000039336E013682500191D11601A684223A3
:1013700001204235E254CAE71368191D11601D6847
:1013800000212800626800F0D1FC002800D185E02F
:10139000401B6060BBE7202321680B43236045218D
:1013A0007820605440498B461168081D10601D0666
:1013B00031D45D062FD50E88DA0702D520221343DB
:1013C0002360002E03D1202223689343236010233F
:1013D000039343230022E2546368A360002B1EDBC7
:1013E000042122688A432260002E18D1029D002B1E
:1013F0004ED1039B082B24D0029B5B1B23614BE740
:1014000045235821E154274923688B461168081D5C
:1014100010601D06CDD50E68CEE72368BFE7039B9D
:101420009A46029D30005146FEF732FF5B465B5CF8
:10143000013D2B70330006005345F3D2039B082B6C
:10144000DAD12368DB07D7D5626823699A42D3DCF7
:101450003023013D2B70CFE718801AE71E8879E70B
:1014600000269E5F320062E743222D20A054A36035
:10147000002B02DB0423994321600A239A46094B7F
:1014800076429B460A230393CBE708230393A0E706
:101490005B4625001B7842352B70AAE7606836E76B
:1014A00074C8000034D4000048D4000010B5034ACA
:1014B0000349044800F006FB10BDC046500C002054
:1014C0003D1F0000040C002041680B4B10B50400C8
:1014D000994201D000F032FDA168084B994202D038
:1014E000200000F02BFDE168054B994202D020005E
:1014F00000F024FD10BDC0463010002098100020E0
:10150000001100204B6E10B5DB0702D48B899B05C0
:1015100001D5002010BD886DFFF7D4FBF9E7C04668
:101520004B6E10B5DB0702D48B899B0501D50020DB
:1015300010BD886DFFF7CEFBF9E7C046F8B5CE4683
:1015400047463B4C3B4B3C4A2000002580B51A6087
:101550000423082200215C3025606560A560656673
:1015600025616561A561E360FFF7ACF82000334BAE
:10157000334F344E99466362334B58309846E76296
:101580002663A3622462FFF795FBCC23E5502F4B23
:1015900020006367802300210822C430E550A5663F
:1015A000E5662567A567E567FFF78CF822008823C5
:1015B0006832E2504A460433E25042462000043387
:1015C000E2500433E750C0300433E650FFF772FBBB
:1015D000D0232000E5500433E5500433E5501C4A85
:1015E0005C33E550583BE2500433E5502D30043372
:1015F000E550002104330822FF30E550FFF762F880
:101600002200F023D032E2504A460433E250200058
:1016100042460433E25029300433E750FF300433AC
:10162000E650FFF747FBC0BCB946B046F8BDC04620
:10163000301000202C100020AD140000091B000009
:10164000751B0000A51B0000351B000009000100F0
:1016500012000200F0B5C6462C4B070000B518007A
:101660009846FFF72FFB2A4B1B68002B44D0294ECE
:101670007368B468013B03D524E06834013B21D38F
:101680000C22A55E002DF8D12000234B5830E360DA
:101690006566FFF70FFB4046FFF71CFB20000822A2
:1016A00000212560A560656025616561A5615C30EC
:1016B000FFF708F86563A563A564E564200080BCB6
:1016C000B846F0BD3568002D01D02E00D0E7D621F8
:1016D00038004900FFF73AFA041E10D00423D02244
:1016E0000560250043600C300021A0605200FEF729
:1016F000E9FF34602E00BBE7FFF720FFB7E730605B
:101700004046FFF7E7FA0C233B60D7E7281000209C
:101710002C100020500C00200100FFFF70B50400C9
:10172000094D2800FFF7CEFA236A002B05D1074B9D
:101730002362074B1B68002B03D02800FFF7CAFA6F
:1017400070BDFFF7FBFEF8E728100020C914000069
:101750002C10002010B50248FFF7B4FA10BDC046A7
:101760002810002010B50248FFF7B4FA10BDC0469B
:101770002810002010B50448FFF7A4FA0020034AFF
:10178000034900F09FF910BD28100020500C0020E4
:101790000515000010B5044A0449002000F092F934
:1017A0000348FFF797FA10BD500C002021150000E8
:1017B00028100020F0B54E46DE4657464546E0B5B7
:1017C000936883B00C0091460090002B5FD00C23EF
:1017D000CA5E130763D50B69002B60D04B461F68A8
:1017E000930723D5A36A00269A46B34B0025984653
:1017F000216A002D16D02B00454500D9AE4B320092
:101800000098D047002859DD4B464A469B68361859
:101810001B1A2D1A9360002B39D0A36A216A9A46AD
:10182000002DE8D13E687D680837E2E7D30762D52E
:101830000023B84600209A4600261F00002E45D0FF
:1018400000284CD03B00B3469E4200D99B462068FE
:101850002269A5686369904203D9ED18AB4500DDA4
:10186000FEE05B4500DDEEE0A56A5246216A009885
:10187000A847051E22DD01207F1B19D04B464A4692
:101880009B68AA445B1B761B9360002BD6D100207B
:1018900003B0F0BCBB46B246A946A046F0BD21004D
:1018A000009800F0DFF900280DD10C23E25E95E7E7
:1018B0002100009800F042FB0028DFD00C22A35E3C
:1018C00040221343A38101204042E1E7082243461E
:1018D00094465E68E044002EF8D01B689A463200B9
:1018E0000A21504600F022FA002800D1DBE05346DE
:1018F0000130C71AA6E7002380219A4689008B464B
:10190000564655462068A36884469846002D5CD00C
:1019100059460A425DD09A46AB4200D990E09023E6
:10192000DB001A4232D02169431A606901934300F7
:101930001B18D80FC3185810019B824601335B193E
:10194000834201D99A461800520500D497E001005D
:101950000098FFF7FBF88046031E00D1A6E0019A2D
:101960002169FFF74DF8A389544A1340802213439D
:10197000A38143462361019B1A004244944622609E
:101980005246A846AA46D31A6261A3605246310065
:101990006046FEF73FFE4246A8460025A368206841
:1019A0009B1A5044A36020604B4642469B684644C5
:1019B0009B1A4A46936000D169E70C23E25E2068D7
:1019C000A36884469846002DA2D13E687D680837FA
:1019D0009AE7226982421BD362699046AA4217D8CD
:1019E000802328001B069D4200D335484146FEF760
:1019F00059FC4346A26A43439046216A320000984C
:101A0000C047002800DC59E780464346ED1ACBE783
:101A10009846AB4200D9A84642463100FEF7FAFD8F
:101A20004246A36820689B1A4044A3602060002BB4
:101A3000EBD12100009800F081FA0028E5D03DE7C5
:101A4000A846AA46A2E75A465146FEF7E3FD5A4683
:101A5000A3685D469B1AA36023685B4423600AE782
:101A600051462A00FEF7D6FD236821005B19009835
:101A7000236000F063FA002800D1FCE61EE70200B4
:101A8000009800F08DF98046002800D071E7009D95
:101A900021692800FFF720F98022A3899343743A33
:101AA0001BB22A600CE7731C1F00CCE6009A0C33B3
:101AB00013600C22A35E03E700FCFF7F7FFBFFFFA8
:101AC000FFFFFF7FF8B54746CE46884680B5814682
:101AD000170000267D68BC68013D0DD4A389012B49
:101AE00007D90E22A35E013303D021004846C04728
:101AF00006436834013DF1D23F68002FEAD130003F
:101B0000C0BCB946B046F8BD70B50C000E25495FA3
:101B100009F02EF8002803DB636D1B18636570BDA8
:101B2000A389024A1340A381F9E7C046FFEFFFFFF4
:101B300000207047F8B50C001F000C23C95E05009B
:101B40001600CB050AD40A4B320019402800A181A7
:101B50000E23E15E3B0009F012F8F8BD0E23E15EB2
:101B60000022022309F009F80C23E15EEBE7C046EE
:101B7000FFEFFFFF70B50C000E25495F08F0FDFF79
:101B8000431C07D08023A2895B0113431BB260650D
:101B9000A38170BDA389024A13401BB2F8E7C04677
:101BA000FFEFFFFF10B50E23C95E08F0EAFF10BD7E
:101BB000F8B505000E001400002802D0036A002BBF
:101BC00041D0A369A360A3891B071BD52369002B00
:101BD00018D0FF22F7B2616916402268D31A9942E1
:101BE0001FDD0133A1680139A160511C216017700C
:101BF00062699A421ED0A389DB0701D50A2E19D04B
:101C00003000F8BD2100280000F02CF8002817D182
:101C1000FF222369F7B2616916402268D31A9942FC
:101C2000DFDC2100280000F089F9002808D1012319
:101C30002268D7E72100280000F080F90028DFD0D3
:101C400001267642DCE7FFF769FDBAE7030010B52D
:101C50000A00034908681900FFF7AAFF10BDC04633
:101C6000000C0020304B70B5050018680C000028EF
:101C700002D0026A002A4FD00C22A35E1A071DD59B
:101C80002269002A24D0D90708D50021A160616902
:101C900000204942A161002A08D070BD00219807A8
:101CA00000D461690020A160002AF6D11A06F4D59B
:101CB000402213430120A3814042EEE7DA062ED5ED
:101CC0005A0714D4226908210B43A381002ADAD1D0
:101CD000A02180208900800019408142D3D02100BA
:101CE000280000F071F90C22A35E2269CBE7616B3A
:101CF00000290AD022004432914204D02800FEF785
:101D0000EBFF0C22A35E0022626324229343002295
:101D1000626022692260D6E7FFF700FDACE7092286
:101D20002A6037321343C5E7000C002070B5CCB2EF
:101D300083070FD0531E002A0AD0032504E0013088
:101D4000284208D0013B03D30278A242F7D170BDEC
:101D50000020FCE71300032B12D9FF220A401502D2
:101D6000AD182A040C4EAD1803E0043B0430032BDD
:101D700006D9026809496A40511891433142F4D0AA
:101D8000C218002B03D1E3E701309042E0D0037882
:101D9000A342F9D1DBE7C04680808080FFFEFEFED3
:101DA000F0B5C64607000E00140000B500292DD07E
:101DB000002A1DD000F090F98046844203D83500F7
:101DC0004308A34210D321003800FEF7BFFE051ED2
:101DD00010D0220044450FD831002800FEF710FE35
:101DE00031003800FEF778FF280080BCB846F0BD0F
:101DF000FEF772FF0025F7E7310042462800FEF7A4
:101E0000FFFD31003800FEF767FFEDE71100FEF738
:101E10009DFE0500E8E7C046F0B5C64600B50C22B9
:101E20008B5E07000C001A073CD44A68002A5CDD70
:101E3000E66A002E32D000223D68216A3A60DA0458
:101E400057D4002201233800B0470200431C67D05A
:101E50000C21635EE66A216A5B0706D56368D21AC5
:101E6000636B002B01D0236CD21A00233800B047DB
:101E7000431C47D00023636023692360A389DB04EC
:101E80003ED4616B3D60002908D023004433994261
:101E900002D03800FEF720FF00236363002080BCDF
:101EA000B846F0BD0E69002EF8D00D680022AD1BBB
:101EB0000E609B0700D14A69A260002D04DCEDE7AB
:101EC00036182D1A002DE9DDA36A32009846380035
:101ED0002B00216AC0470028F2DC4022A38913436B
:101EE0001BB20120A3814042D9E70A6C002A9FDC83
:101EF000D4E7626DB0E7626022692260DB04C0D57E
:101F00006065BEE73A680C21635E002AF3D01D2AA3
:101F100001D0162A0ED10023636023692360B0E745
:101F20003B68002B00D193E71D2B01D0162BD4D199
:101F30003D60B3E740221343D3E7C0460B6970B559
:101F400005000C00002B1AD0002802D0036A002BD9
:101F500017D00C22A35E002B11D0626ED20701D4E1
:101F60009B0511D528002100FFF756FF636E050081
:101F7000DB0702D4A3899B050AD5280070BD002584
:101F8000FBE7FFF7CBFBE4E7A06DFEF79BFEE9E77D
:101F9000A06DFEF79FFEF0E7010010B5002804D009
:101FA000054B1868FFF7CAFF10BD044A04490548ED
:101FB000FFF788FDF8E7C046000C0020500C002019
:101FC0003D1F0000040C0020F0B50C23CD5E060080
:101FD0000C0097B0AA0707D523004733236023617D
:101FE0000123636117B0F0BD0E23C95E00292BDB0E
:101FF0006A4608F0D5FD002824DB8027FF00390061
:102000003000019DFEF7A2FD002833D08022A38975
:1020100020601343A381F0231B021D408023206115
:1020200067619B019D42DDD130000E23E15E08F027
:10203000C3FD0028D6D00322A38993430122134372
:10204000A381CFE70C23E55E0F4B2D06ED171D4056
:102050008023DB009C46654429003000FEF776FDB6
:10206000002807D08022A38920601343A381206128
:102070006561B7E70C22A35E9A05B3D403229343AC
:1020800002221343A381A7E740FCFFFF70B50C00B9
:102090001E000E23C95E150096B0002914DB6A46A7
:1020A00008F07EFD00280FDBF02301991B02194088
:1020B000084B9C4661444B4259418023DB00002081
:1020C00031602B6016B070BDA38900211B06F4D5CA
:1020D0004023F4E700E0FFFF0B1F1B68181F002BD5
:1020E00000DB70470B58C018FBE7C046002310B553
:1020F0000448054C9A00C15CA25801331170152B9D
:10210000F8D110BDD02600205C0C002010B50024B2
:10211000054B0134187059709A700333072CF8D1AD
:10212000FFF7E4FF10BDC046D02600208022934B6D
:10213000F0B5D96B08200A43DA630422196CF8243D
:102140000A43FF211A641A6C240602431A648C4B5A
:102150008C4DDA69AC460A43DA61DA698A4980272C
:102160000A40DA61D969894A3F021140E022D2046B
:102170001143D961D96987B02143D96101219C6993
:102180000C439C6180241A645A649A64DA641A6568
:102190005A659A657E4B6400DC63DA6A2A40C02582
:1021A000ED012A43DA62002280251A651E6B6D015B
:1021B000354380261D635D6D36013D435D65DD6AF7
:1021C000702735436026DD621D680D431D60714B2D
:1021D000DC639D6ABD43354366469D629D6A35401A
:1021E000C026F601354360269D62DD6ABD432E435D
:1021F000DE625A649A64DA641D6B80270D431D63A6
:1022000010251E6B3F02354380261D631D6B360172
:102210002C431C635C6D3C435C659C6A04439C627C
:102220009C6A34439C62DC6A2043D86218685A4C2A
:102230000143196013005948910061580B7011183F
:1022400001320B70152AF7D1093A002102A8FEF7D6
:1022500039FA90200224092301276946C005059315
:102260000194009706F098FC90206946C005009400
:1022700006F092FC902004256946C005009506F002
:102280008BFC902008236946C005009306F084FC6F
:10229000902010236946C005009306F07DFC902035
:1022A00020236946C005009306F076FC9020402369
:1022B0006946C005009306F06FFC902080236946B4
:1022C000C005009306F068FC802390205B006946FF
:1022D000C005009306F060FC8022902092006946C1
:1022E000C0050092802606F057FC90206946F60053
:1022F000C005009606F050FC802390201B02694622
:10230000C005009306F048FC69462548009706F092
:1023100043FC69462248009406F03EFC6946214889
:10232000009606F039FC802369461B011D48009386
:1023300006F032FC802369465B011A48009306F0E0
:102340002BFC0323694617480593009406F024FCF0
:1023500069461448009506F01FFC802369465B001F
:1023600010480093059506F017FC802269469200FC
:102370000C48009206F010FC07B0F0BD00100240BF
:10238000001C0240FF8FFFFFFF00FFFFFFFFFFF871
:1023900000080040000C00405C0C0020D02600200B
:1023A000000C004800040048F0B50400062811DCC9
:1023B00003206043084C85002D59461C2970B50048
:1023C0002D592A70851CAF003C592370034C2154B1
:1023D000A2556355F0BDC0465C0C0020D0260020FD
:1023E0007047FA2010B5800007F005F810BD70475F
:1023F0007047704710B5130004000120032C0CD85F
:1024000005290AD8102A08D811224A4366216143B7
:1024100052180248D2185200105A10BD08C90000C4
:102420000120704710B5FFF7FBFF10BD012070477A
:102430000120704710B5FFF7FBFF10BD704710B5C6
:10244000FFF7FCFF10BD000013B5114B00901B7887
:102450000191002B16D16B465B79002B0DD0002A21
:102460000BD000F043FD04000100009800F016FDC1
:102470002000009901F06EFB16BD009800F022FDCF
:102480000400F5E7009800F031FD0099F2E7C0463E
:102490007011002010B504000A0001884088000473
:1024A0000843A188FFF7D0FF10BD10B5040001213B
:1024B000FFF7F0FF2100FFF7B5FF10BD10B50400D6
:1024C0000021FFF7E7FF2100FFF7B9FF10BD012052
:1024D000704710B5FFF7FBFF10BD10B5040000F00A
:1024E000E3FB2000FFF7F5FFFA2006F084FF10BDA4
:1024F00010B50120FFF7F1FF05F08CFB10BD10B502
:102500000020FFF7EAFF05F086FB10BD70B5012142
:102510000500FFF7BFFF2900040005F049F8002877
:1025200054D029002000FFF785FF00284ED0290055
:10253000200004F045FF002848D02900200004F0C6
:102540000DFB002842D02900200004F0DDFA00280D
:102550003CD02900200004F025F9002836D02900BD
:10256000200004F081FF002830D06B79002B0DD0C3
:102570001D4B9C4231D014D81C4B9C4228D009D80A
:10258000033B9C4220D01A4B9C4223D02800FFF7EB
:102590004DFF1CE0174B00209C42F7D104F066F978
:1025A00014E0154B9C421CD008D8144B9C4216D00A
:1025B000134B9C42EAD101F04DF8E7E7114B9C42E6
:1025C000E4D101F03BF8E1E7FFF792FF002070BD96
:1025D00001F050F8FFF793FFF8E70220DEE7032051
:1025E000DCE701F03CF8D1E7217C0000037C00002F
:1025F000017C0000207C00005B7C0000227C00004D
:102600005A7C00005C7C000010B500F032F800201D
:1026100003F03AFF05F03FFA10BD70470120704704
:1026200090238022DB05800702D4D2009A60704795
:10263000D204FBE770B5051CFFF7F0FF041E02D0C3
:10264000281CFFF7EDFF200070BD70B58025902499
:10265000ED00E40529000122200007F040FDA560FF
:1026600070BD10B50400FFF7D8FF201CFFF7E2FF94
:1026700010BD10B505F0E2F8FFF7F3FF10BD000044
:1026800010B505F0DBF8074B04001A78824207D03A
:10269000187005F07BFA044B18602000FFF7E1FF8B
:1026A00010BDC046681100206C1100201FB50B0A38
:1026B000DBB200900191002B01D000F0EBFE0E2365
:1026C00000226B441A80009B02AC02936B469B88ED
:1026D000A380DBB2934204D10298616800F036FE19
:1026E0001FBD2000FFF7E1FE0028F5D1F8E70379D0
:1026F00010B5012B02D1008800F01AFC10BD10B5F6
:10270000002904D004F082FB04F054FC10BD04F056
:10271000DDFBF9E710B5041E11D0031FDBB2A02BBF
:102720000ED805F00BF9002804D0200005F044F97C
:1027300000F028FF200005F035F900F023FF10BD60
:1027400003002033DBB2072B07D807230340012007
:102750009840C0B200F078FEEFE703005B33DBB2D5
:10276000022B04D8243CA0B205F09CF8E7E7030054
:102770005833DBB21A2B05D8074A5B00985A05F08C
:10278000ABF8DCE703003333DBB2122BD7D804F00D
:102790003DFB04F00FFCD2E738CC000010B5002858
:1027A00007D0031FDBB2A02B04D805F005F900F019
:1027B000E9FE10BD03002033DBB2072B07D8072347
:1027C000034001209840C0B200F046FEEFE703004E
:1027D0005B33DBB2022B03D8002005F063F8E8E797
:1027E00003005833DBB21A2B03D8002005F074F82D
:1027F000DFE703003333DBB2122BDAD804F066FBD9
:1028000004F0D8FBD5E770B505000C00FFF782FF98
:10281000002C03D12800FFF7C1FF70BD0120013C4F
:1028200006F0E9FDA4B2F3E7502110B5392800D035
:102830000021FFF7E8FF10BD10B5002803D000F01D
:1028400003FE00F09FFE10BD10B5002803D000F07D
:1028500003FE00F097FE10BDF0B585B087790C1C23
:102860004579029000F0E0FD23043F0901900393B5
:10287000002828D00195002D25D023041B0E0F22FF
:102880001900914340290FD0E1B20A000020203204
:10289000D2B20190072A16D91F229343202B03D1CD
:1028A000012910D987420ED00022A94B01925B78F2
:1028B0005B0708D5022000F091FE00F0B5FD012372
:1028C0004340DBB201932304180F0B283ED8FDF7D9
:1028D00099FC0C000C0056005600B200C7003D00E9
:1028E0003D00CC002C014101410126052304360F97
:1028F0001B0E0F2B00D93601E4B2002D12D0002E92
:102900000BD023002033DBB23000072B01D9002C81
:1029100005D100F099FD00F035FE200050E000F0F8
:10292000A9FDF8E72000FFF739FF002E0ED02300A5
:102930002033DBB23000072B01D9002C02D100F08C
:102940008BFD01E000F09EFD00F01CFE019B002BC2
:1029500013D000F061FD012302001A4018420CD18F
:10296000029B5A7100F052FD00F028FA029800F024
:1029700063F900F04BFD00F02DFA05B0F0BD0F2219
:10298000230426051B0E360F9343202B00D036015F
:10299000E4B2002C06D0012C36D0002D3FD0002F01
:1029A0001CD0BAE76A4B5B785B0713D4002D0AD0C2
:1029B000002E04D0300000F047FD00F0E3FD0020C1
:1029C000FFF7A8FEC2E72800FFF7E8FE002EBDD003
:1029D0003000B4E7002D0BD0002F03D13000FFF7FB
:1029E0002BFFB3E7012FB1D1300000F073FDADE74D
:1029F000002FABD13000FFF727FF300000F078FD4B
:102A0000300000F053FDA1E7002D02D0052F9DD826
:102A1000E4E7042F9AD83000FFF716FF96E7002F5F
:102A2000F9D05020392C00D0012006F0E4FC200021
:102A3000FFF7B4FE8AE72005800F0AD0012800D0F6
:102A400084E70020854201D0A005800D04F044FFFA
:102A50007CE7002D01D0A005800D04F023FF75E771
:102A60002900E0B2FFF74BFE70E723049B019B0FA8
:102A70002BD1002D1BD1102123065B0F9B002207B9
:102A8000DBB2120F9A400800D2B22040214203D09C
:102A90000F209840C043C0B22405A40F1043022C5D
:102AA0000DD0032C0ED0012C06D000F059F904F003
:102AB000C5FEFFF7D6FD49E700F048F9F7E700F05B
:102AC00059F9F4E700F03DF9F1E7A3059B0FDAB2FD
:102AD000002D1ED0DB07EAD5102123065B0F9B00DB
:102AE0002207DBB2120F9A400800D2B220402142E6
:102AF00003D00F209840C043C0B22405A40F104358
:102B0000022C0CD0032C0DD0012C05D000F084F940
:102B1000CDE7012ACBD9DFE700F074F9C7E700F071
:102B200085F9C4E700F036F9C1E7E6B22405240FC1
:102B3000002D06D0200000F041F93000FFF77CFEA8
:102B4000B5E73000FFF780FE200000F043F9AEE764
:102B5000E6260020E6B23000F038042840D8FDF721
:102B600047FB03240F162000002D06D0042F9ED80B
:102B7000E004C00E00F03AF999E7052F97D8F7E77F
:102B8000E004C00E002DE0D100F018F98FE7002D11
:102B900004D0E004C00E00F00AF988E700F002F962
:102BA00085E71C4B5B785B0704D4E004C00E002D66
:102BB000CBD0E9E7002D09D0E404E40E200000F0BA
:102BC000FDF80321200000F0E7FC70E7012000F091
:102BD00005FD012F00D86AE7022000F0FFFC66E740
:102BE000002D08D0002F03D03000FFF793FD5EE7E3
:102BF000E004C00EC8E7002F09D05020392E00D0C5
:102C0000012006F0F8FB3000FFF7C8FD4FE7E004B5
:102C1000C00E9AE7E626002070B5040021884079AE
:102C200000F090F9051C00F00BF900F089F8291C60
:102C30002000FFF711FE70BD037910B50400002BD2
:102C400011D0FFF763FC00280ED100F0EDFB002847
:102C500009D06379002B06D0074B5B785B0702D560
:102C6000022000F0BBFC10BD2000FFF7D5FF2000C4
:102C7000FFF724FCF7E7C046E626002010B5002049
:102C800004F010FE002004F027FE00F003FC00F02A
:102C900079FC04F0A9F904F08DF910BD10B504F029
:102CA00095FEFFF7EBFF10BD10B500F0DDFBFFF761
:102CB000F5FF10BDC2B20004030F062B18D00F2180
:102CC000062B0ED80E3300200B40012B08D8012014
:102CD000F02A05D007D80020E72393424041C0B234
:102CE00070470633EFE7F43A100043425841F6E7E5
:102CF0000120E72AF4D9F13A53425A41D0B2EFE722
:102D000003000279002010B5824204D0188800F038
:102D10000FF9FFF7CFFF10BD82B002B0704782B04D
:102D200002B07047704710B5FFF7FCFF10BD000000
:102D300010B5FFF7F8FF014B187010BD9911002076
:102D4000704710B5FFF7F4FF10BD000010B5034B3E
:102D50001B781843FFF7ECFF10BDC0469911002007
:102D600010B5034B1B781840FFF7E2FF10BDC046BB
:102D70009911002010B5034B1B785840FFF7D8FF7E
:102D800010BDC04699110020704710B5FFF7FCFF39
:102D900010BD000010B5FFF7F8FF014B187010BD13
:102DA0009811002010B50020FFF7F4FF10BD01239B
:102DB000834010B5D8B2FFF7EDFF10BD012383406B
:102DC00010B5034A10781843C0B2FFF7E3FF10BDF7
:102DD000981100200123834010B5034A10789843CE
:102DE000FFF7D8FF10BDC046981100200123834093
:102DF00010B5034A10785840C0B2FFF7CBFF10BDA2
:102E00009811002010B5034B1B781843FFF7C2FF41
:102E100010BDC0469811002010B5034B1B78184018
:102E2000FFF7B8FF10BDC0469811002010B5034B46
:102E30001B785840FFF7AEFF10BDC0469811002028
:102E40007047032370B50126CC086343D2180723CB
:102E5000350019408D400021EDB20300CB40545C99
:102E600033405B4263402B405C40545401310329A2
:102E7000F3D170BD30B50724032300220440C008FD
:102E8000434301251000C9188B5CE3402B4093405D
:102E900001321843C0B2032AF6D130BD13B5030482
:102EA00001AA10801B0E0800052B08D81478102CDE
:102EB00005D811215943024A0919FFF7C2FF13BD72
:102EC0007111002007B5030401AA10801B0E002019
:102ED000052B08D81278102A05D81130584302491A
:102EE0008018FFF7C7FF0EBD71110020F7B503244E
:102EF00001270D4A0D4B12781B7801AE1A43308022
:102F00000092009B23413B4204D1013CF9D20025B1
:102F10002800FEBDE5B22800316800F02BFE80B22B
:102F20000128F2D0F4E7C046981100209911002042
:102F300007B501AB18800198FFF7D8FF019900F0A1
:102F400019FE0EBD13B501AB19800E4B1B78002B7B
:102F500003D00198FFF7ECFF16BD00280CD00198B4
:102F6000FFF7C4FF040001000198FFF797FF20005E
:102F7000019900F0FFFDEFE70198FFF7A3FF0400C0
:102F8000F5E7C0467011002030B5040001200500AF
:102F90008D4029000500954098402A00030020003C
:102FA0000A43D1B2984322408A4201D11C43E0B285
:102FB00030BD000010B504001300044A10780A0068
:102FC0002100FFF7E1FFFFF7E5FE10BD981100209B
:102FD00070B507250B4B1C780B4B1B78A34200D117
:102FE00070BD0A4BE200D15A9B1858889A88000499
:102FF0000843D988013409041143FFF790FE2C409F
:10300000EAE7C0469A1100209B1100209C11002085
:10301000064B10B558881A88D988000410439A883E
:1030200009041143FFF77BFE10BDC046DC110020F0
:10303000F8B51A4883790F2B2BD84379002B28D069
:10304000174B05881A78174B46881C7807239C462F
:10305000154FA2421DD0D300DB191979002919D0D0
:103060001988A94216D15979002913D15988891B89
:1030700089B2C7290ED80F241021827922400A4331
:1030800082719A79224011439971FFF7D5FDFFF7BC
:103090009FFFF8BD634601321A40DAE7DC110020D9
:1030A0009A1100209B1100209C110020F7B50E4CB6
:1030B0000E4B24781B7801940D4C019DAB4201D13D
:1030C0000020FEBDDE00A5196F788F4205D1365D68
:1030D000864202D16D79954203D1072501332B40F9
:1030E000EBE70120EDE7C0469B1100209A1100207C
:1030F0009C110020F0B5040089B00622010004A84C
:10310000FDF77EFC2378904D0393637866790293F4
:103110002B7967882279002B18D1002A00D1CAE0C8
:10312000002E00D107E12000FFF7EAFD002800D1C2
:1031300001E1082221002800FDF762FC2800FFF7CA
:10314000D6FAFFF775FFFFF763FFB4E06B790193E1
:103150006B880199FB1A9BB2002900D1C1E0C72BF3
:1031600000D985E0002A00D1A5E0AB792988228822
:103170000F2B53D8914211D1002E49D10F22134069
:1031800001321343AB71FFF743FF2800FFF754FDF3
:10319000AB79A3710025280009B0F0BD002E37D10E
:1031A000320002990398FFF781FF320002990398D9
:1031B000FFF77CFF051EEDD10498FFF7B9FEC3B2FF
:1031C00000040F21020F032A08D8012A0FD9000E8C
:1031D000014211D0A2790F2A0ED8DCE706320A404C
:1031E000012A0ED92000FFF727FD019DD3E7000E2D
:1031F000014201D0002BCED02033DBB2072BCAD93D
:10320000F0E7EF2BC7D90F33DBB2022BC3D9E9E7C5
:1032100001234D4A91790B439371BBE791420BD146
:10322000002E09D1A3712000FFF706FD082221001E
:103230002800FDF7E5FB86E72000FFF761FD002889
:1032400079D0002E77D0404B9A791F2A0AD9198855
:1032500006A8018047801B798271037100234371A6
:10326000FFF7EAFC082221002800FDF7C9FB68E708
:10327000AB790F2B0ED804980599FFF74DFD280068
:10328000FFF7DAFC082200212800FDF71BFAFFF700
:10329000BFFE7FE7002A0ED02988228891420CD1F8
:1032A000002E0AD12000A371FFF7C6FC08223100CE
:1032B0002800FDF707FA01256DE72000FFF720FD44
:1032C000002838D0002E36D0AB791F2BCAD92A88D7
:1032D00006A8028047802A79837102710022427118
:1032E000BEE7C72B2BD8002AE5D0002E23D02A8892
:1032F00023889A4216D1AB79DA070DD40F2B0BD95C
:103300000F21A3718B43F02B8DD0A3791A090132C1
:1033100012010B40134385E7082221002800FDF726
:103320006FFBC8E72000FFF7EBFC00289AD10123D0
:10333000AA791343AB712000FFF77EFCBBE704982A
:103340000599FFF7E9FC9DE7DC110020F0B585B099
:103350006C46009020006160FFF7CCFE274E071EF0
:10336000274D0DD02379002B03D000986168FFF71B
:10337000D6FC072728783378834225D105B0F0BDE5
:10338000220002AB9C4603CA03C3207933782A7813
:103390000028EED007205C1C044094420AD0194853
:1033A000DB0008226146C018FDF72AFB3470FFF7E6
:1033B0000FFEDEE7FFF778FC08223900124837706D
:1033C0002F70FDF77FF9D4E70E4CC0000019FFF70E
:1033D00091FE0028D2D02B78DB001A5BE4186088BD
:1033E000E188A3880004090419431043FFF797FC00
:1033F0002B7801333B402B70BCE7C0469B1100206B
:103400009A1100209C110020DC110020014B18783B
:10341000C0087047EC110020024B187807231840B1
:103420007047C046EC110020034B18780723184062
:10343000431E9841C0B27047EC110020014B187830
:103440007047C046F8110020024B1A7810431870DC
:103450007047C046F8110020024A13788343137066
:103460007047C046F81100200022014B1A707047C7
:10347000F8110020024B1A78104318707047C046AC
:10348000F7110020024A1378834313707047C04637
:10349000F71100200022014B1A707047F71100202D
:1034A000704710B5FFF7FCFF10BD0000030010B51A
:1034B000044A1078034203D098431070FFF7F1FFDD
:1034C00010BDC046ED110020704710B5FFF7FCFF9E
:1034D00010BD0000010010B5044A13781940814264
:1034E00003D003431370FFF7F0FF10BDEE1100206F
:1034F000030010B5044A1078034203D098431070BB
:10350000FFF7E3FF10BDC046EE11002010B5044BDD
:103510001A78002A03D000201870FFF7D6FF10BDDC
:10352000EE110020F8B5124A124B14781B78124D98
:103530001C43124B2E681F78002F06D004F0EEF9C2
:10354000002801D0FFF7E2FF3C4334702C680C4D9B
:10355000082229002000FDF73BF8002807D00822A8
:1035600021002800FDF74CFA200004F071F9F8BDA5
:10357000F8110020F71100201C0E0020EE11002091
:10358000E411002010B5FFF7CDFF10BD704710B556
:10359000FFF7FCFF10BD0000094B10B55B785B071F
:1035A0000AD5084CC30019432170FFF707FC2078A7
:1035B000C008FFF7ECFF10BDFFF700FCFBE7C046BB
:1035C000E6260020EC110020002010B5024B1870F8
:1035D000FFF7DDFF10BDC046EC11002010B5094A11
:1035E00013781900814311704A070AD1994208D013
:1035F000054B5B785B0704D5C808FFF7EBFBFFF7CB
:10360000E3FF10BDEC110020E62600200A4A10B5A9
:1036100053785907C90F81420CD00121084003316A
:1036200080008B4303435370108800F04AF8022057
:10363000FFF7D4FF10BDC046E6260020044B10B5AE
:10364000587801234007C00F5840FFF7DFFF10BD37
:10365000E626002010B50120FFF7D8FF10BD10B5F9
:103660000020FFF7D3FF10BD704710B5FFF7FCFF38
:1036700010BD000010B500F057FD0020014900F01A
:103680003AFD10BDFFFF0000002010B500F0D7FC90
:10369000034B020000209A4201D103F029FF10BD24
:1036A000E6FE000010B5022000F0BCFC10BD10B515
:1036B000032000F0B7FC10BD10B5042000F0BFFCE3
:1036C00010BD10B50100042000F015FD10BD10B5AF
:1036D00001000E2000F003FD10BD10B50400012113
:1036E0000F2000F014FD01222521200000F0DAFC5B
:1036F00010BD000007B5034B01A81B780370FFF74E
:10370000ECFF07BDCCCC000010B504000421132051
:1037100000F0FDFC04222621200000F0C3FC10BDB7
:10372000002307B501A80193FFF7EEFF07BD0000D6
:1037300007B500F0F9FC0020234900F0DCFC002173
:10374000022000F0CCFC0121204B0320197000F076
:10375000C6FCA0210420490100F0CDFC0021062078
:1037600000F0BDFCFF21072000F0B9FC002108207B
:1037700000F0CDFC0021242000F0B1FC0021172036
:1037800000F0ADFC00210C2000F0A9FC00210D2070
:1037900000F0A5FC00230022182100920193684646
:1037A000083200F07FFC0021202000F0B0FCFFF781
:1037B000A1FFFFF7B5FF002003F0AEFE03F0D6FE39
:1037C000FFF753FF07BDC046E6FE00009911002039
:1037D00010B5FFF7ADFF10BD73B504F009FA094D40
:1037E00004002B8883420CD06B4600261E8004F018
:1037F000FFF96B469E80588000980199FEF756FFAE
:103800002C8073BDFA11002010B504F0BFF9024BF3
:103810001860024B186010BD18120020141200200E
:103820007047704710B5FFF7FCFF10BD704710B52B
:10383000FFF7FCFF10BD01207047000010B50548E0
:1038400000F072FA00F07AFCFFF7EAFFFFF7EAFFF8
:1038500010BDC046213D00000120704710B5FFF7A4
:10386000FBFF10BD7047704710B5FFF7FBFFFFF778
:10387000FAFF10BD10B500F077FAFEF7E6FE02F091
:10388000D3FD10BD10B504F067F903F07EFE00F023
:103890002FFBFFF7EFFFFEF7A3FDFFF7C8FF10BDFB
:1038A000F0B587B0FFF7C7FF00280BD1FFF794FFF3
:1038B00002F054FA03F0C2FBFEF793FDFEF7E0FEC0
:1038C00007B0F0BD00F02CFB2C4F00243D00200081
:1038D0000134E4B22E6800F071FA062C4AD00435A7
:1038E0008642F4D0264B1B789B0701D500F06CFA7A
:1038F000FFF7B4FF00240390200000F05FFA3B685C
:103900000200009098422DD05A40012300250292D7
:103910000193019B029A13421BD01E00009B1E4084
:10392000731E9E41039BF6B2002B0DD004AB1D709D
:103930005C7004F05DF9012204AB58801A715E716D
:1039400004980599FEF7B2FE32002900200001F02C
:1039500081FA019B01355B00EDB20193112DD8D1A5
:10396000009B3B600134E4B20437062CC4D1FFF75E
:103970004BFF9DE78642B5D198E7C046FC11002079
:103980001C12002070B500F0FFF8A4230400DB0136
:10399000984246D2A023DB01984200D39EE0DF2864
:1039A00015D8CC283AD8A7280AD8A42800D970E07E
:1039B000012803D0031F9BB2A02B06D8201C70BD8A
:1039C0000300A83B9BB21A2B67D90024F6E780239B
:1039D000DB0198421AD28026B601B04200D38BE0B8
:1039E000E728EBD9431EFF3B013EFF3E9BB2B342AB
:1039F000EBD2000AC0B200F047F90500E0B200F0D7
:103A0000C3F82D023540284384B2D7E7C0B200F096
:103A1000BBF8F0231B0123403F4C03431C43A4B2DB
:103A2000CCE7A523DB0198421CD23C4B984242D8FC
:103A30003B4B984209D90321012201408A40C30629
:103A40005B0F5B01374C1343E8E7374B98422DD8A7
:103A50000322C4B2A3081440023AA2405B01334CD3
:103A60001343DBE7324B984208D81F20314B2040EC
:103A70009C422AD8304C000204439FE72F4BC318C6
:103A80009BB21F2BA1D8F82304025B011C402C4BD6
:103A90000AE08023243CDB01C0E75834294BE4B220
:103AA0006400E35A8824E4011C4387E71F23034092
:103AB000254C1B02F8E70321012201408A40C3067E
:103AC0005B0F5B01214C1343A8E700F0DDF8F823FE
:103AD000802400025B011840A401CDE71F20204094
:103AE00000F0D2F8E3051B0F1B02C20600D500014F
:103AF00000B2174C034391E7C004C00E00F0C4F8B5
:103B00000500E0B200F040F8F8232D025B011D40F3
:103B100005432E43B4B251E700A0FFFF5F520000FF
:103B20003F520000008CFFFF1F520000008DFFFF7E
:103B3000BF5200009F520000F4A0000040ADFFFF04
:103B4000F0A0000038CD0000F1A00000008AFFFFC7
:103B50000090FFFF07B50B0401AA1180190E002386
:103B6000052905D81278102A02D802F018FF0300A0
:103B700018000EBD07B501AB19800199FFF7EAFFE8
:103B8000FFF700FF0EBD0000030010B5E72808D8BE
:103B9000DF2808D8312861D00ED8292855D02A2806
:103BA00062D0180010BDE0380728FAD8FCF716FBE1
:103BB00018F9252A38F93F44392808D0822806D038
:103BC0003528EED12F4A12789206EAD506E02D4A22
:103BD0001178890750D152781207E2D52923E0E7FE
:103BE0000121284802780A4236D140780842D8D0CC
:103BF000E323D206D5D50023D3E7224A1278510712
:103C0000F6D4CEE71F490A78500733D44978C9075C
:103C100032D410210A4051424A4152421340C0E777
:103C2000184A51788907BCD51278E723E1E7154A8D
:103C300012781107F9D4B4E712490A7810071DD495
:103C400049788907E5D5E423ABE70E4A1178890660
:103C500016D452781207A4D53923A2E7094A12785C
:103C600052069ED52A239CE7064A1278520698D51A
:103C7000312396E7E22394E7E02392E7E62390E7F7
:103C800035238EE7E626002030B5244C21784B07FB
:103C90000DD514220240043A53425A4118230340DE
:103CA000083B5D426B419A4201D00C2358400B0700
:103CB0000DD514220240143A53425A4118230340AE
:103CC000183B5D426B419A4201D00C235840647806
:103CD000E3070DD511220240013A53425A411823FD
:103CE0000340083B5D426B419A4201D00923584092
:103CF000A4070DD511220240113A53425A4118230C
:103D00000340183B5C4263419A4201D0092358406A
:103D1000C90601D51823984330BDC046E6260020C9
:103D20000020704700207047014B18607047C04664
:103D3000200E002010B5FFF79DFC10BD10B500F05F
:103D4000EFF81E2005F057FB00F0EAF8002000F025
:103D500035F8C00703D5FFF7EDFF03F05BFF10BD9B
:103D600010B5FFF7EBFF10BD10B5FFF78DFC002875
:103D700001D1FFF72DFDFFF795FC084B1870FFF7F9
:103D80009BFC074B1880FFF7EBFFFFF790FCFEF75B
:103D9000D8FF044B1878FEF7F8FF10BD1C12002066
:103DA000E626002098110020704710B5FFF7FCFFB1
:103DB00010BD704710B5FFF7FCFF10BD014B800030
:103DC000C058704700270020704710B5012005F04B
:103DD00012FB10BDC046C046C046C046C046C046E5
:103DE000C046C046C046C046C046C046C046C046A3
:103DF000C046C046C046C046704710B5FFF7E5FF55
:103E000010BD10B572B60F23020001211A40914077
:103E10009843202206F063F962B610BD70B50A4CD3
:103E20000A4D2068431C01D0FFF7EBFF0434AC427D
:103E3000F7D1074C074D2068431C01D0FFF7E1FF85
:103E40000434A542F7D170BD70CD0000B4CD0000A0
:103E5000B4CD0000CCCD0000F0B5234B85B003926B
:103E60008A00D358029001915A1C38D072B60125AD
:103E70000F242E001F0023409E40A74331002A003C
:103E80003800360406F02BF9BE6062B6FFF7A2FFD9
:103E90000023164A1E009446039AD7436246D1581F
:103EA000029AD258481C1CD00800A0430068214048
:103EB000C840284215D12E0003990A430299CA50DE
:103EC0000433182BEAD1019A074B9200D058431CB7
:103ED00001D0FFF796FF31000198FFF78EFF05B084
:103EE000F0BD3A40EAE7C04670CD0000B4CD000016
:103EF00010B51824FFF792FF220000210648FCF7B6
:103F0000E1FB220000210548FCF7DCFB062000F065
:103F10003BF8FFF74AFF10BD00270020E8260020ED
:103F200070B586B06C46182200212000FCF7CAFB51
:103F3000002501262900013532002000EDB2FFF7EF
:103F40008BFF7600112DF5D10D4D18222100280090
:103F5000FCF73EFB03005A1E9341DBB2002804D05D
:103F60002A0043CC43C243CC43C206220549280061
:103F700000F00CF80400FFF71DFF200006B070BD34
:103F8000E82600200027002070470000F7B5160043
:103F90001C1E134F0090019107D001233B7003F0CA
:103FA000F5FD104B18600020FEBD3D78002DFAD0C5
:103FB0000C4B186803F028FE0428F4D9B600320030
:103FC00000990198FCF704FB002805D03200009905
:103FD0000198FCF715FD2C00002320003B70E3E75F
:103FE000241200202012002010B504F0EFF8FFF793
:103FF00049FC04F0FFF810BD10B504F003F9FFF719
:104000004FFC04F003F910BD10B503F048FD04F0B7
:10401000D9F8FFF713FCFFF7E7FFFFF7EDFFFFF716
:1040200023FCFAE707B500236A46D3716B4601000B
:104030000122D81D00F086F86B46D8790EBD07B571
:1040400000236A46D3806B4601000222981D00F0CF
:1040500079F86B46D8880EBD002307B5010001A88A
:104060000422019300F06EF801980EBD07B56A4670
:104070000300D01D01700122190000F07BF807BD7C
:1040800007B56A460300901D01800222190000F066
:1040900071F807BD07B504220191010001A800F0E5
:1040A00069F807BDF8B51400D31D6A46DB08DB00CC
:1040B000D31A00AF9D460500220068460E0000F0AE
:1040C00041F8220069462800FCF782FA002804D053
:1040D00022003100280000F04DF8BD46F8BD70B553
:1040E0000D000400FFF79EFFA84203D02900200026
:1040F000FFF7BCFF70BD70B50D000400FFF79FFF18
:10410000A84203D029002000FFF7BAFF70BD70B5A8
:104110000D000400FFF7A0FFA84203D029002000F3
:10412000FFF7B8FF70BD0000802210B500210248E3
:104130005201FCF7C7FA10BD2812002010B5FFF796
:10414000F3FF10BD70B50C00150000210600FCF750
:10415000B9FA802362195B019A4200D91D1B002D18
:1041600005D003492A0030006118FCF749FC70BDF6
:10417000281200200300802010B58C1840018442D2
:1041800000D9421A002A04D0024808181900FCF786
:1041900037FC10BD281200207FB5050A030CEDB2D4
:1041A0000190DBB2002D10D1002901D0284AD35C48
:1041B0001A001C00FF210A4010000C4024020B4092
:1041C0001B042043184304B070BD01AA1C001678DC
:1041D000002901D01E4B1C5D0620FF217043FCF717
:1041E00061F85521494241437600711803264E4338
:1041F000FF22F6B23100961B531B69437543091227
:104200002D12511A521B6343614362431B12091260
:104210001212DBB2C9B2D2B2E4B2062816D8FBF74A
:10422000DDFFC904070C1115C90022000C00C1E70D
:10423000110022001C000B00BCE722001C00130030
:104240000A00B7E711001A002300EFE71A00F2E7AF
:10425000D4CD00001FB50121FFF79EFFFF21020012
:10426000030A0B40000C08400A401B021A430304D7
:1042700002481040184305B000BDC046FFFF00FFD4
:10428000010030B5C0B2012916D9F723FF225B0126
:10429000994202D84A090832D2B20124A01840102B
:1042A00005004543ADB2C3B2A94206D2013BDAB222
:1042B0009442F3D9013CE0B230BDFF28FCD0013379
:1042C000DCB2F5E7054A064B11884B4305495B18FC
:1042D0009BB2180AC018C0B2138070472A0E002083
:1042E00005080000193600000F21430615D40B0005
:1042F0000200034092060B49920F52005218517867
:1043000012784B431B119B1840B2DBB2002801DA34
:104310005B42DBB2803BD8B27047C343DAB20B409A
:104320000133E7E7CCCD00001FB5030A019030311F
:10433000D8B2124B49005B189979E4234B431B1206
:104340001C339A1AD317D2185A40D200821A01ACE1
:10435000131C120400D500231BB2584300126070D6
:104360002288FF231000A178120A184012020B4085
:104370001B041043184304B010BDC046B00C00200D
:10438000030C84B001903031D8B2114B49005B1856
:104390009979E4234B431B121C339A1AD317D21872
:1043A0005A40D200821A131C120400D5002301AA1D
:1043B00012881BB2FF21434310001B12120A08404F
:1043C00012020B401B041043184304B07047C04650
:1043D000B00C002084B001AB01901A701A88997853
:1043E0001000FF23120A184012020B401B04104356
:1043F000184304B0704700001FB50B4B3031490023
:104400005B189B7901AC9B1A019023702288FF23D3
:104410001000A178120A184012020B401B0410432E
:10442000184304B010BDC046B00C00201FB50B4BA4
:10443000303149005B18DB7901AC9B1A0190237085
:104440002288FF231000A178120A184012020B40A4
:104450001B041043184304B010BDC046B00C00202C
:10446000F0B53031124D4B00EB18DF7916003A00F1
:1044700085B0203A019001ACC0B253B2120602D509
:104480002023DB1B5BB2490069188A79A178921B53
:10449000D218801820702288FF231000120A1840BA
:1044A00012020B401B041043184305B0F0BDC04678
:1044B000B00C002084B004AA0190107803225A4363
:1044C000521001A9801808700A88FF23100089780B
:1044D000120A184012020B401B041043184304B088
:1044E00070471FB51C0001904BB2080601D5494228
:1044F0004BB23820C01A80B292B252434043801867
:1045000080B2FFF7BDFE0322424301ABA4181C702A
:104510001A8899781000FF23120A184012020B40E3
:104520001B041043184304B010BD000030B53033F5
:10453000104D5B00EB18DD799B79203D703B5943B2
:104540007F236A435118CA171A40521885B0D211F6
:1045500001AC1218019022702288A17810008033DB
:10456000120A184012020B401B041043184305B0F6
:1045700030BDC046B00C002030B53033104D5B006C
:10458000EB18DD799B79203D703B59433F236A430B
:104590005118CA171A40521885B0921101AC12185E
:1045A000019022702288A1781000C033120A1840AE
:1045B00012020B401B041043184305B030BDC04627
:1045C000B00C00207FB5164D30335B00EB18DD7961
:1045D0009E79203D6A433500703D019001ACC0B228
:1045E0006BB22D0602D570239B1B5BB23825EB1AEC
:1045F000594303238A187F215343DA170A40D218FC
:10460000D211801820702288FF231000A178120A8E
:10461000184012020B401B041043184304B070BD35
:10462000B00C00207FB50E00041C01901000FFF7B5
:104630005BFE3036124B76009B199B7901ADC0189A
:10464000C0B20200803AE4B253B2120603D580230E
:104650005B421B1A5BB20C225B00DBB253431B12A2
:10466000E4182C702A88FF231000A978120A184039
:1046700012020B401B041043184304B070BDC04627
:10468000B00C002030B5114B303149005B189D79DA
:1046900085B0A91A019001ACC0B24BB2090601D590
:1046A000521B53B2DAB2182353431B12C0182070A6
:1046B0002288FF231000A178120A184012020B4032
:1046C0001B041043184305B030BDC046B00C002099
:1046D000C943030CC9B2DBB24B43FF210A000240BD
:1046E000000A0840000210431B0A044A0B401B0446
:1046F000104084B0184304B07047C046FFFF00FF6D
:10470000CAB2822184B0891A019001AB081C002929
:1047100000DA00201A78997812181A701A88FF2384
:104720001000120A184012020B401B0410431843D9
:1047300004B070471FB501900520434306AA1288B4
:1047400001A9D3181A1C9BB2FF2B00D9FF22D34317
:104750008A78DBB29B181C1CFF2B00D9FF240A8827
:10476000FF231000120A1840120223401B041043BA
:10477000184304B010BD30B585B0019008A800887A
:104780001B18C81709184140D0171218424009B227
:104790009BB292B20901FF2900DDFF2112B2120182
:1047A000FF2A00DDFF22081C15B209B201ACA942A4
:1047B00000DD101C1B181A1C9BB2FF2B00D9FF2216
:1047C000D343A278DBB29B18191CFF2B00D9FF2121
:1047D0002288FF231000120A184012020B401B040B
:1047E0001043184305B030BD7FB5050C160008AA6C
:1047F00001901288E8B201ACFF25482B06D8D31AE5
:104800001A1C9BB2AB4200D92A1C95B2083189B25E
:10481000102905D9330008339BB2102B00D9FF258E
:104820000321ED430C4BF2170A405B78921992106A
:10483000EDB2D21840192270011CFF2800D9FF21C7
:104840002288FF231000120A184012020B401B049A
:104850001043184304B070BD1827002084B004AA88
:1048600012880190D21A131C92B2FF2A00D9FF239A
:10487000DBB2D94301AA9078C9B24018011CFF28C5
:1048800000D9FF2110781B1813701288FF23100025
:10489000120A184012020B401B041043184304B0C4
:1048A00070471FB506AA128801A9D31A1A1C9BB219
:1048B0000190FF2B00D9FF22D3438A78DBB29B18EB
:1048C0001C1CFF2B00D9FF240A88FF231000120AAA
:1048D0001840120223401B041043184304B010BDBB
:1048E000024B1A78104318707047C0466E230020A0
:1048F000012310B5044C0822182104482370FFF747
:1049000021FC0023237010BD6E23002018270020F7
:1049100010B50B00041E02D1C80FC00110BDC11795
:1049200042184A4012B29918002B0CDB9B1A58010E
:10493000FBF7B8FC20231B1A5BB2D8B2002CEDDACF
:104940004042C0B2EAE74801D11AFBF7ABFC602352
:10495000F1E77FB5040A0190E4B21000E51AFFF711
:10496000D7FF8300C01AEDB22D18EDB26C4301AE33
:10497000241274703288FF231000B178120A184094
:1049800012020B401B041043184304B070BD00001A
:104990007FB5040C051CE4B21000E61AFFF7B8FF5F
:1049A0008300C01AFF23F6B236181800F6B274431B
:1049B00028402D0A1D40240A2D021C40034B284389
:1049C00024041840204304B070BDC046FFFF00FF20
:1049D0007FB5060A0190100008AA1278F6B29C1A58
:1049E000FFF796FF3419E4B2201AC0B2704301AD4C
:1049F00004126C702A88FF231000A978120A18404C
:104A000012020B401B041043184304B070BD000099
:104A10007FB5061C040C100008AA1578E4B25D1BD3
:104A2000FFF776FFFF236519EDB22D1A1800EDB2DE
:104A30006C433040360A1E40240A36021C40034BA9
:104A4000304324041840204304B070BDFFFF00FF32
:104A500030B585B0019010001D00FFF759FF01AC83
:104A6000401920702288FF231000A178120A1840F4
:104A700012020B401B041043184305B030BD30B583
:104A800085B00190100008AA147801AD1C1BFFF737
:104A90003FFFE4B2241A2C702A88FF231000A97863
:104AA000120A184012020B401B041043184305B0B1
:104AB00030BD0000082210B518210348FFF7F2FAB4
:104AC0000022024B1A7010BD182700206E23002010
:104AD0001FB5FFF7BFFBFF210200030A0B40000CCC
:104AE00008400A401B021A430304024810401843BE
:104AF00005B000BDFFFF00FF11224243F0B52D4B72
:104B000085B09B185B5C0D00002701900293FF2B82
:104B10001ED105B0F0BD039B9A5DFF2A11D001990B
:104B2000FBB299421DD1F3B29D421AD111224A43E0
:104B3000214B9B185A5D2032111CFF2A00D9FF21FE
:104B4000595501360134112EE5D10137062FE0D039
:104B500011237B43184C174A1C199B1800260393FA
:104B6000D9E70299134830313032490052004118D8
:104B7000821890798B79D2791B1AC8799BB2801AE6
:104B800080B240435B43C01880B2FFF779FB28280E
:104B9000D7D82823181A031C80B2102800D9102354
:104BA0002278DBB29B181A1CFF2B00D9FF2222703F
:104BB000C7E7C046B00C00209C23002010B5FFF7CB
:104BC00079FF10BD352310B5064C03220649601C41
:104BD0002370FBF715FF81235B42A380FFF76AFF79
:104BE00010BDC046182700206CC700000020704789
:104BF00070B506000D001400FFF7F8FF1122724394
:104C0000044B9B185B5DFF2B02D023540130C0B2D4
:104C100070BDC046B00C002010B5024BDB68984751
:104C200010BDC046F8C8000010B5024C6468A0472B
:104C300010BDC046F8C80000164B73B5C3185B7DA5
:104C400005000B4225D06946134B9A784A70DA78F2
:104C50008A705C78FFF736FBB4210600200049001B
:104C6000B430FBF769FB0322091BCB1713405B1819
:104C700016409B107343E4186B461C700098FFF7B6
:104C800027FF01040302C2B21B0E2800090EFFF722
:104C9000CBFF73BDAF0D002018270020104B13B5BC
:104CA000C3185B7D04000B4219D0FFF70BFB6B466A
:104CB0001870FFF707FB6B466A46C00100127F3091
:104CC0005870084BDB7893700098FFF701FF0104E0
:104CD0000302C2B21B0E2000090EFFF7A5FF13BD91
:104CE000AF0D00201827002010B5024B9B68984795
:104CF00010BDC046F8C80000F0B5514B89B0DC7853
:104D0000032363439B1000936B461B78050021002F
:104D1000FF200593FBF7C6FAC3B20493AB78494A68
:104D20000292002B0CD0002211001000FFF7DCFFD4
:104D3000662200210298FBF7C5FC0022424B1A7044
:104D4000424A029F137801331370002301933E4BB4
:104D50001D78002D0ED03E0000253378002B10D09A
:104D60009C420ED9394A049912788A4209D1013BF2
:104D7000337006E0FBF7E8FB354B9842EBDC3E0076
:104D80003C702800019906AAFFF732FF002812D0D4
:104D900006AB1B7830780393059B984245D9009B5E
:104DA000C01AE11A5843FBF77DFAC1B20B0022008A
:104DB0000398FFF739FF0135EDB21136062DCCD13E
:104DC000019B01370133DBB20193112BBFD11F4B84
:104DD00004991A788A4201D100221A701A4A13786B
:104DE0000133DBB21C2B28D90023112013700522BC
:104DF000029E651E55360199331A052A03D11F5CA0
:104E0000BC4200D11D541F78A74201D31D705C74B1
:104E10000139C9B201330029EFD1013AD2B21130C0
:104E2000002AE8D1002009B0F0BD00996043FBF7EB
:104E300039FA0023C2B21900BAE71370F2E7C0468C
:104E4000182700209C2300206D2300206C230020C5
:104E500054555505F0B589B0019002910392FEF7C3
:104E6000FBFC049000284BD00024039BA34205D0F8
:104E70000299019806AAFFF7BBFE04002D4E337875
:104E80001B19082B1DDD0825611C2D1B2A00891903
:104E90002948FBF7B5FD210009312A008919274867
:104EA000FBF7AEFD610019316A0089192448FBF750
:104EB000A7FD210011312A0022488919FBF7A0FD26
:104EC0003570002211001B4803789C461E4B059349
:104ED0006346D5B2EB18DBB2AC4213D8002902D03E
:104EE000144B64441C70039B002B09D00322174B06
:104EF0001B7893437C2B03D102990198FFF7FCFDAB
:104F000009B0F0BD06A9575C059E39003031490053
:104F100071188E79C979C51869726E706F74002521
:104F20000C335B00C318591C5D7001324D7004993D
:104F3000CEE7C0466F230020702300207823002096
:104F40008823002080230020B00C00201827002098
:104F50000120704710B5FFF7FBFF10BD1223584327
:104F600082B0C0B201AA1070C018031CC0B257288A
:104F700000D957231078DBB21B02184302B07047E8
:104F8000F0B58BB0039000780591FFF7E7FFC4B24E
:104F9000270003041B0E02932D4B07AA10801A68EA
:104FA0002C4B92B21B7933375B0853431B12DBB295
:104FB0000493294B7F00FF18029AE3B29A4206D865
:104FC0005623002093424041C0B20BB0F0BD234BAA
:104FD000039A1B5D52781A4236D03D787E78703D38
:104FE000203EADB2B6B22800330068437343C01808
:104FF00080B2FFF745F932B2049E29B20300154D85
:10500000174800966E78457880782D023543000465
:105010002843059DA84709AB187002040002120E30
:10502000000E5A7098700998FFF752FD01040302B0
:1050300008AA090E1B0E107051709370C9B2C2B24B
:10504000DBB22000FFF7F0FD02370134B4E7C046C1
:105050002027002018270020B00C0020C40D0020BD
:105060001927002010B50249FFF78AFF10BDC0467E
:10507000D149000010B50249FFF782FF10BDC046BC
:10508000114A000010B50249FFF77AFF10BDC04673
:10509000B544000010B50249FFF772FF10BDC046CD
:1050A0007F4A0000F0B5070089B000780391FFF750
:1050B00055FFC4B2250005AB06041880330E0193DA
:1050C000264B33351A79264B52081B686D009BB26C
:1050D00053431B12DBB20293224BED18019AE3B249
:1050E0009A4206D85623002093424041C0B209B0EC
:1050F000F0BD1D4B7A781B5D1A422CD0174B1B4814
:105100005B786A789C4666464378297880781B02EB
:105110003343203A7039000409B212B21843039E97
:10512000029BB04707AB187002040002120E000E7B
:105130005A7098700798FFF7CBFC0104030206AA87
:10514000090E1B0E107051709370C9B2C2B2DBB25F
:105150002000FFF769FD02350134BFE71827002062
:1051600020270020B00C0020C40D002019270020AB
:1051700010B50249FFF796FF10BDC0465349000025
:1051800010B50249FFF78EFF10BDC04691490000DF
:1051900010B50249FFF786FF10BDC046E34400008A
:1051A00010B50249FFF77EFF10BDC046514A00000E
:1051B000F0B5060087B000780F00FFF7CFFE03AB15
:1051C0001880214B05041A79204B92081B68013284
:1051D0009BB253431B12DBB22D0E0193C4B2E1B25A
:1051E0008D4206D856230020AB424041C0B207B0E2
:1051F000F0BD174B72781B5D1A4223D0154A124B33
:10520000587853781B0203439078019A000418439E
:10521000B84705AB187002040002120E000E5A7057
:1052200098700598FFF754FC0104030204AA090EC4
:105230001B0E107051709370C9B2C2B2DBB2200065
:10524000FFF7F2FC0134CAE71827002020270020CE
:10525000C40D00201927002010B50249FFF7A8FF50
:1052600010BDC0462943000010B50249FFF7A0FF5A
:1052700010BDC0468143000010B50249FFF798FFFA
:1052800010BDC046D543000010B50249FFF790FF9E
:1052900010BDC046F943000010B50249FFF788FF72
:1052A00010BDC0462D44000010B50249FFF780FF35
:1052B00010BDC0466144000010B50249FFF778FFF9
:1052C00010BDC0462546000010B50249FFF770FF2B
:1052D00010BDC04685460000F0B507008BB00078D1
:1052E0000591FFF73BFE07AB06041880330E294AF1
:1052F0000293294B15681B79ADB29B085D432D12B3
:10530000EDB2C4B228004030C0B2FEF7EDFF8038E5
:1053100043B228000393FEF7E7FF803843B20493BB
:10532000029AE3B29A4206D85623002093424041A3
:10533000C0B20BB0F0BD194A7978125D114226D087
:105340001749154A009550784A78059E1202024383
:105350008878039900041043049AB04709AB187089
:1053600002040002120E000E5A7098700998FFF79E
:10537000AFFB0104030208AA090E1B0E1070517046
:105380009370C9B2C2B2DBB22000FFF74DFC01340A
:10539000C6E7C0462027002018270020C40D0020A3
:1053A0001927002010B50249FFF796FF10BDC0462F
:1053B0002D45000010B50249FFF78EFF10BDC04615
:1053C0007945000010B50249FFF786FF10BDC046C1
:1053D000C5450000F0B5070089B000780291FFF7DD
:1053E000BDFD05AC354B20801B79050401332D0E26
:1053F000191CFF2B00D9FF21314889B2FAF752FF5F
:10540000247886B2E3B201939D4206D85623002049
:10541000AB424041C0B209B0F0BD2A4B7A781B5D67
:105420001A4237D02848294B02780393013A52B2E6
:10543000130631D53300214A117901310A1CFF29A5
:1054400000D9FF2292B253431B12214A99B21B4B3F
:10545000587853781B020343907800041843029B4A
:10546000984707AB187002040002120E000E5A7023
:1054700098700798FFF72CFB0104030206AA090E97
:105480001B0E107051709370C9B2C2B2DBB2200013
:10549000FFF7CAFB0134B5E7039B01999B5C8B4284
:1054A00009D113000C335B00C31859789B781B0299
:1054B0000B43B342BFD3013ABAE7C04618270020D6
:1054C000FFFF0000C40D0020242700203527002006
:1054D0001927002010B50249FFF77CFF10BDC04618
:1054E000D146000010B50249FFF774FF10BDC04659
:1054F00001470000F0B591B0089008780B9209912F
:10550000FFF72CFD03041B0E0793464BC7B21B7815
:105510000DAA0A933B0010803333434A5B009B186B
:10552000079A0593FBB29A4206D85623002093426D
:105530004041C0B211B0F0BD3C4B099ADB5D5278DE
:105540001A422AD00024032239490EA8FBF758FA40
:10555000089B089A0393334BD3180493049B0A9A2D
:10556000013304936B461B7B9A421AD8314BDB788C
:105570005C430EAB24129C700E98FFF7A9FA01044D
:1055800003020FAA090E1B0E107051709370C9B25E
:10559000C2B2DBB23800FFF747FB059B013702338D
:1055A000BEE7059B1D78049B1B78ED1AABB20693F2
:1055B000059B06985E78049B40431B7AF61AB6B2A8
:1055C00033007343C01880B2FEF75AFE194A030035
:1055D00012790132111CFF2A00D9FF210398114AC8
:1055E0000C30400012185078927889B212020243AF
:1055F0004A4369460EAD1212AC7090B21824095F8E
:1056000032B20B9C00900E98A04703041B0E6B70E7
:10561000039B0402240E0133AC702870E4B20393A0
:105620009CE7C04624270020B00C0020C40D0020B9
:105630001927002018270020064B10B51C78010000
:10564000013C054A201C002C00DA0020C0B2FFF704
:1056500051FF10BD242700203547000010B5010080
:105660000020024AFFF746FF10BDC0463547000044
:10567000064B10B51C780100013C054A201C002C8B
:1056800000DA0020C0B2FFF735FF10BD242700204C
:105690007747000010B501000020024AFFF72AFFFB
:1056A00010BDC04677470000064B10B51C780100BE
:1056B000013C054A201C002C00DA0020C0B2FFF794
:1056C00019FF10BD24270020E947000010B5010094
:1056D0000020024AFFF70EFF10BDC046E947000058
:1056E000064B10B51C780100013C054A201C002C1B
:1056F00000DA0020C0B2FFF7FDFE10BD2427002015
:105700005D48000010B501000020024AFFF7F2FEDC
:1057100010BDC0465D480000064B10B51C78010066
:10572000013C054A201C002C00DA0020C0B2FFF723
:10573000E1FE10BD24270020A348000010B50100A1
:105740000020024AFFF7D6FE10BDC046A348000065
:10575000F7B507000078FFF701FC6B46164A188082
:10576000164B060459785378C4B290781B020B4349
:1057700000041843FFF7ACF901AD030428700002E0
:105780001B0E000E360E6B70A870E3B29E4205D859
:1057900056230020B3424041C0B2FEBD084B7A7888
:1057A0001B5D1A4205D02000AB782A786978FFF794
:1057B0003BFA0134E9E7C0461927002018270020EA
:1057C000C40D0020F0B589B002900078FFF7C6FB49
:1057D00004AA108005ACC2B20304224D1B0E22495C
:1057E0002000039203220193FBF70AF905986E78D3
:1057F000FFF76EF906AF3870030400021B0E000EAF
:10580000B8707B702B7907ADF61826700598FFF7F6
:105810005FF901260304287000021B0E000E039C92
:105820006B70A870019AE3B29A4206D85623002002
:1058300093424041C0B209B0F0BD0C4B029A1B5DCF
:1058400052781A4207D0334207D0AB782A78697869
:105850002000FFF7E9F90134E4E7BB783A7879787A
:10586000F6E7C0461827002019270020C40D0020A5
:10587000F0B5050087B00078FFF770FB04AE1D4F50
:10588000030403AA10801B0E03221B49C4B230007C
:105890000193FBF7B5F83F79BF08019AE3B29A424A
:1058A00006D85623002093424041C0B207B0F0BD55
:1058B000124B6A781B5D1A4219D0114A6300D35CFF
:1058C0000C4A1B097B4352789B1833703068FFF7F2
:1058D000FFF80104030205AA090E1B0E1070517097
:1058E0009370C9B2C2B2DBB22000FFF79DF9013458
:1058F000D3E7C0461827002019270020C40D002038
:10590000170D0020F0B5050087B00078FFF726FBE3
:1059100004AE1D4F030403AA10801B0E03221B4973
:10592000C4B230000193FBF76BF83F79BF08019ACE
:10593000E3B29A4206D85623002093424041C0B2B7
:1059400007B0F0BD124B6A781B5D1A4219D0114A9C
:105950006300D35C0C4A7B4352785B119B18337015
:105960003068FFF7B5F80104030205AA090E1B0E03
:10597000107051709370C9B2C2B2DBB22000FFF751
:1059800053F90134D3E7C046182700201927002017
:10599000C40D0020160D0020F0B5060087B0007879
:1059A000FFF7DCFA04AF244C03AB18800322C3B228
:1059B0002249050438000193FBF722F82300204A0E
:1059C00018791268C00892B250430012C0B2FEF7B4
:1059D0008BFC0200803AE4782D0E53B2120603D5F8
:1059E00080235B421B1A5BB25B00DBB25C43241278
:1059F000BC700498FFF76CF805AC0304207000023B
:105A00001B0E000E019F6370A070FBB29D4206D872
:105A100056230020AB424041C0B207B0F0BD094B55
:105A20007278DB5D1A4205D03800A378227861785D
:105A3000FFF7FAF80137E8E71827002019270020B8
:105A400020270020C40D002073B505000078FFF763
:105A500085FAAB780604C4B2360E002B26D1154B5E
:105A60001A791032131CFF2A00D9FF23124A9BB265
:105A700010680A2180B25843001280B2FAF708FC7D
:105A800089B2002907D1FEF71DFC572358436978D6
:105A90000012FFF7D1F856230020B3424041C0B2B4
:105AA00076BD20006978FFF7C7F80134A642F8DC1C
:105AB000F1E7C046182700202027002073B5050015
:105AC0000078FFF74BFAAB780604C4B2360E002B11
:105AD00025D1144B1A791032131CFF2A00D9FF2349
